:04000000F3C3000145
:03006600C30001D3
:10010000F321420111C03D3E61121AFE6128032114
:100110007201013000EDB03E05ED3C3E3085FE350C
:10012000281632F03DFE34280218FE21A2011100EB
:100130003E012B00EDB018FE21F03D363423365041
:1001400018FE596F7520646F206E6F742068617699
:1001500065206120524F4D20696D61676520696E91
:100160007374616C6C656420666F72204D6F64659A
:100170006C20594F5520444F204E4F542048415633
:1001800045204120524F4D20494D41474520494E81
:100190005354414C4C454420464F52204D4F44450A
:1001A0004C20284D6F64656C2034206D6F64652091
:1001B00072657175697265732061204D6F64656C3D
:0D01C000203320524F4D20696D6167652985
:00010001FE
